{
  "contractName": "Team",
  "abi": [
    {
      "inputs": [
        {
          "internalType": "string",
          "name": "_teamName",
          "type": "string"
        },
        {
          "internalType": "string[]",
          "name": "optionNames",
          "type": "string[]"
        },
        {
          "internalType": "uint256",
          "name": "_timeLimit",
          "type": "uint256"
        },
        {
          "internalType": "uint256",
          "name": "_minimumVoterParticipation",
          "type": "uint256"
        },
        {
          "internalType": "string",
          "name": "_joinCode",
          "type": "string"
        }
      ],
      "stateMutability": "nonpayable",
      "type": "constructor"
    },
    {
      "anonymous": false,
      "inputs": [
        {
          "indexed": false,
          "internalType": "uint256",
          "name": "optionId",
          "type": "uint256"
        }
      ],
      "name": "isTieBeingHandled",
      "type": "event"
    },
    {
      "anonymous": false,
      "inputs": [],
      "name": "periodEnded",
      "type": "event"
    },
    {
      "anonymous": false,
      "inputs": [
        {
          "indexed": false,
          "internalType": "address",
          "name": "voter",
          "type": "address"
        }
      ],
      "name": "removedVoterRights",
      "type": "event"
    },
    {
      "anonymous": false,
      "inputs": [
        {
          "indexed": false,
          "internalType": "address",
          "name": "owner",
          "type": "address"
        }
      ],
      "name": "votingPeriodEnded",
      "type": "event"
    },
    {
      "inputs": [
        {
          "internalType": "address",
          "name": "",
          "type": "address"
        }
      ],
      "name": "isEligible",
      "outputs": [
        {
          "internalType": "bool",
          "name": "",
          "type": "bool"
        }
      ],
      "stateMutability": "view",
      "type": "function",
      "constant": true
    },
    {
      "inputs": [],
      "name": "isVotingSessionOpen",
      "outputs": [
        {
          "internalType": "bool",
          "name": "",
          "type": "bool"
        }
      ],
      "stateMutability": "view",
      "type": "function",
      "constant": true
    },
    {
      "inputs": [],
      "name": "joinCode",
      "outputs": [
        {
          "internalType": "string",
          "name": "",
          "type": "string"
        }
      ],
      "stateMutability": "view",
      "type": "function",
      "constant": true
    },
    {
      "inputs": [],
      "name": "minimumVoterParticipation",
      "outputs": [
        {
          "internalType": "uint256",
          "name": "",
          "type": "uint256"
        }
      ],
      "stateMutability": "view",
      "type": "function",
      "constant": true
    },
    {
      "inputs": [
        {
          "internalType": "uint256",
          "name": "",
          "type": "uint256"
        }
      ],
      "name": "options",
      "outputs": [
        {
          "internalType": "string",
          "name": "name",
          "type": "string"
        },
        {
          "internalType": "uint256",
          "name": "voteCount",
          "type": "uint256"
        },
        {
          "internalType": "uint256",
          "name": "timeLimit",
          "type": "uint256"
        }
      ],
      "stateMutability": "view",
      "type": "function",
      "constant": true
    },
    {
      "inputs": [],
      "name": "teamName",
      "outputs": [
        {
          "internalType": "string",
          "name": "",
          "type": "string"
        }
      ],
      "stateMutability": "view",
      "type": "function",
      "constant": true
    },
    {
      "inputs": [],
      "name": "teamOwner",
      "outputs": [
        {
          "internalType": "address",
          "name": "",
          "type": "address"
        }
      ],
      "stateMutability": "view",
      "type": "function",
      "constant": true
    },
    {
      "inputs": [],
      "name": "timeLimit",
      "outputs": [
        {
          "internalType": "uint256",
          "name": "",
          "type": "uint256"
        }
      ],
      "stateMutability": "view",
      "type": "function",
      "constant": true
    },
    {
      "inputs": [],
      "name": "totalParticipants",
      "outputs": [
        {
          "internalType": "uint256",
          "name": "",
          "type": "uint256"
        }
      ],
      "stateMutability": "view",
      "type": "function",
      "constant": true
    },
    {
      "inputs": [],
      "name": "voterParticipation",
      "outputs": [
        {
          "internalType": "uint256",
          "name": "",
          "type": "uint256"
        }
      ],
      "stateMutability": "view",
      "type": "function",
      "constant": true
    },
    {
      "inputs": [
        {
          "internalType": "address",
          "name": "",
          "type": "address"
        }
      ],
      "name": "voterRegistry",
      "outputs": [
        {
          "internalType": "bool",
          "name": "",
          "type": "bool"
        }
      ],
      "stateMutability": "view",
      "type": "function",
      "constant": true
    },
    {
      "inputs": [
        {
          "internalType": "address",
          "name": "",
          "type": "address"
        }
      ],
      "name": "voters",
      "outputs": [
        {
          "internalType": "uint256",
          "name": "weight",
          "type": "uint256"
        },
        {
          "internalType": "bool",
          "name": "hasVoted",
          "type": "bool"
        },
        {
          "internalType": "uint256",
          "name": "voteChoice",
          "type": "uint256"
        }
      ],
      "stateMutability": "view",
      "type": "function",
      "constant": true
    },
    {
      "inputs": [
        {
          "internalType": "string",
          "name": "providedCode",
          "type": "string"
        }
      ],
      "name": "requestToJoinTeam",
      "outputs": [],
      "stateMutability": "nonpayable",
      "type": "function"
    },
    {
      "inputs": [
        {
          "internalType": "string",
          "name": "newJoinCode",
          "type": "string"
        }
      ],
      "name": "updateJoinCode",
      "outputs": [],
      "stateMutability": "nonpayable",
      "type": "function"
    },
    {
      "inputs": [
        {
          "internalType": "uint256",
          "name": "newMinimumParticipation",
          "type": "uint256"
        }
      ],
      "name": "updateMinimumParticipation",
      "outputs": [],
      "stateMutability": "nonpayable",
      "type": "function"
    },
    {
      "inputs": [
        {
          "internalType": "address",
          "name": "voter",
          "type": "address"
        }
      ],
      "name": "registerVoter",
      "outputs": [],
      "stateMutability": "nonpayable",
      "type": "function"
    },
    {
      "inputs": [
        {
          "internalType": "address",
          "name": "voter",
          "type": "address"
        }
      ],
      "name": "excludeVoter",
      "outputs": [],
      "stateMutability": "nonpayable",
      "type": "function"
    },
    {
      "inputs": [
        {
          "internalType": "string",
          "name": "optionName",
          "type": "string"
        }
      ],
      "name": "addVotingOption",
      "outputs": [],
      "stateMutability": "nonpayable",
      "type": "function"
    },
    {
      "inputs": [
        {
          "internalType": "uint256",
          "name": "optionIndex",
          "type": "uint256"
        }
      ],
      "name": "removeVotingOption",
      "outputs": [],
      "stateMutability": "nonpayable",
      "type": "function"
    },
    {
      "inputs": [
        {
          "internalType": "uint256",
          "name": "optionIndex",
          "type": "uint256"
        },
        {
          "internalType": "string",
          "name": "newName",
          "type": "string"
        }
      ],
      "name": "updateOptionName",
      "outputs": [],
      "stateMutability": "nonpayable",
      "type": "function"
    },
    {
      "inputs": [],
      "name": "totalOptions",
      "outputs": [
        {
          "internalType": "uint256",
          "name": "",
          "type": "uint256"
        }
      ],
      "stateMutability": "view",
      "type": "function",
      "constant": true
    },
    {
      "inputs": [
        {
          "internalType": "address",
          "name": "voter",
          "type": "address"
        }
      ],
      "name": "checkIfEligible",
      "outputs": [
        {
          "internalType": "bool",
          "name": "",
          "type": "bool"
        }
      ],
      "stateMutability": "view",
      "type": "function",
      "constant": true
    },
    {
      "inputs": [
        {
          "internalType": "uint256",
          "name": "option",
          "type": "uint256"
        }
      ],
      "name": "vote",
      "outputs": [],
      "stateMutability": "nonpayable",
      "type": "function"
    },
    {
      "inputs": [],
      "name": "winningOption",
      "outputs": [
        {
          "internalType": "uint256",
          "name": "winningOptionIndex",
          "type": "uint256"
        }
      ],
      "stateMutability": "view",
      "type": "function",
      "constant": true
    },
    {
      "inputs": [
        {
          "internalType": "uint256",
          "name": "optionIndex",
          "type": "uint256"
        }
      ],
      "name": "optionStatus",
      "outputs": [
        {
          "internalType": "string",
          "name": "name",
          "type": "string"
        },
        {
          "internalType": "uint256",
          "name": "voteCount",
          "type": "uint256"
        },
        {
          "internalType": "uint256",
          "name": "_timeLimit",
          "type": "uint256"
        }
      ],
      "stateMutability": "view",
      "type": "function",
      "constant": true
    },
    {
      "inputs": [],
      "name": "votingPeriodStatus",
      "outputs": [
        {
          "internalType": "bool",
          "name": "",
          "type": "bool"
        }
      ],
      "stateMutability": "view",
      "type": "function",
      "constant": true
    },
    {
      "inputs": [],
      "name": "closeVotingSessionEarly",
      "outputs": [],
      "stateMutability": "nonpayable",
      "type": "function"
    },
    {
      "inputs": [
        {
          "internalType": "uint256",
          "name": "optionId",
          "type": "uint256"
        }
      ],
      "name": "tieHandler",
      "outputs": [],
      "stateMutability": "nonpayable",
      "type": "function"
    },
    {
      "inputs": [],
      "name": "removeVoterRight",
      "outputs": [],
      "stateMutability": "nonpayable",
      "type": "function"
    },
    {
      "inputs": [],
      "name": "finishVotingSession",
      "outputs": [],
      "stateMutability": "nonpayable",
      "type": "function"
    }
  ],
  "bytecode": "0x60806040523480156200001157600080fd5b5060405162001ec638038062001ec6833981016040819052620000349162000237565b600080546001600160a01b031916331790556001620000548682620003f8565b50600080546001600160a01b039081168252600a602090815260408084208054600160ff199182168117909255855490941685526009909252909220829055600580549091169091179055600683905560078290556008620000b78282620003f8565b5060005b8451811015620001555760046040518060600160405280878481518110620000e757620000e7620004c4565b602090810291909101810151825260008282018190526040909201889052835460018101855593825290208151919260030201908190620001299082620003f8565b5060208201516001820155604090910151600290910155806200014c81620004da565b915050620000bb565b50505050505062000502565b634e487b7160e01b600052604160045260246000fd5b604051601f8201601f191681016001600160401b0381118282101715620001a257620001a262000161565b604052919050565b600082601f830112620001bc57600080fd5b81516001600160401b03811115620001d857620001d862000161565b6020620001ee601f8301601f1916820162000177565b82815285828487010111156200020357600080fd5b60005b838110156200022357858101830151828201840152820162000206565b506000928101909101919091529392505050565b600080600080600060a086880312156200025057600080fd5b85516001600160401b03808211156200026857600080fd5b6200027689838a01620001aa565b96506020915081880151818111156200028e57600080fd5b8801601f81018a13620002a057600080fd5b805182811115620002b557620002b562000161565b8060051b620002c685820162000177565b918252828101850191858101908d841115620002e157600080fd5b86850192505b838310156200032257825186811115620003015760008081fd5b620003118f8983890101620001aa565b8352509186019190860190620002e7565b809a505050505050604088015194506060880151935060808801519150808211156200034d57600080fd5b506200035c88828901620001aa565b9150509295509295909350565b600181811c908216806200037e57607f821691505b6020821081036200039f57634e487b7160e01b600052602260045260246000fd5b50919050565b601f821115620003f357600081815260208120601f850160051c81016020861015620003ce5750805b601f850160051c820191505b81811015620003ef57828155600101620003da565b5050505b505050565b81516001600160401b0381111562000414576200041462000161565b6200042c8162000425845462000369565b84620003a5565b602080601f8311600181146200046457600084156200044b5750858301515b600019600386901b1c1916600185901b178555620003ef565b600085815260208120601f198616915b82811015620004955788860151825594840194600190910190840162000474565b5085821015620004b45787850151600019600388901b60f8161c191681555b5050505050600190811b01905550565b634e487b7160e01b600052603260045260246000fd5b600060018201620004fb57634e487b7160e01b600052601160045260246000fd5b5060010190565b6119b480620005126000396000f3fe608060405234801561001057600080fd5b50600436106101da5760003560e01c806382474b1b11610104578063a6d996d0116100a2578063c8c05cda11610071578063c8c05cda1461042f578063d742d19b1461043a578063ef99efeb1461044d578063f31835e71461045a57600080fd5b8063a6d996d0146103ea578063b354388914610416578063bc5bd14a1461041e578063c08d1fe51461042657600080fd5b80639cfd5142116100de5780639cfd5142146103795780639fde4ef81461038c578063a26dbf2614610394578063a3ec138d1461039d57600080fd5b806382474b1b1461034b578063873ed0e714610353578063934feb131461036657600080fd5b80631cfe7e5a1161017c5780634763d4e71161014b5780634763d4e7146102cf578063657de0f01461030257806366e305fd1461031557806368b97d4c1461033857600080fd5b80631cfe7e5a1461027f5780632eb03f971461029257806338db6dd31461029a578063409e2205146102ad57600080fd5b8063100f25a4116101b8578063100f25a4146102235780631188b8071461024e578063166ffeba146102575780631717616e1461026a57600080fd5b80630121b93f146101df57806301cbec3b146101f45780630430a2b714610210575b600080fd5b6101f26101ed366004611356565b610462565b005b6101fd60075481565b6040519081526020015b60405180910390f35b6101f261021e366004611356565b610672565b600054610236906001600160a01b031681565b6040516001600160a01b039091168152602001610207565b6101fd60035481565b6101f2610265366004611356565b61075d565b6102726108a8565b60405161020791906113bf565b6101f261028d36600461147c565b610936565b6101f26109fe565b6101f26102a83660046114b9565b610b1b565b6102c06102bb366004611356565b610bd2565b604051610207939291906114e2565b6102f26102dd3660046114b9565b600a6020526000908152604090205460ff1681565b6040519015158152602001610207565b6101f261031036600461147c565b610c94565b6102f26103233660046114b9565b600b6020526000908152604090205460ff1681565b6101f2610346366004611507565b610da2565b610272610e45565b6101f2610361366004611356565b610e52565b6101f261037436600461147c565b610e81565b6101f26103873660046114b9565b610ebb565b6101fd610f6e565b6101fd60025481565b6103cf6103ab3660046114b9565b600960205260009081526040902080546001820154600290920154909160ff169083565b60408051938452911515602084015290820152606001610207565b6102f26103f83660046114b9565b6001600160a01b03166000908152600b602052604090205460ff1690565b6004546101fd565b6101f261103c565b6101fd60065481565b60055460ff166102f2565b6102c0610448366004611356565b61114f565b6005546102f29060ff1681565b6101f2611245565b60055460ff1661048d5760405162461bcd60e51b81526004016104849061154e565b60405180910390fd5b42600482815481106104a1576104a161157d565b906000526020600020906003020160020154101561050d5760405162461bcd60e51b8152602060048201526024808201527f54686973206f7074696f6e20766f74696e6720706572696f642068617320656e6044820152633232b21760e11b6064820152608401610484565b336000908152600960209081526040808320600a9092529091205460ff166105775760405162461bcd60e51b815260206004820152601f60248201527f596f7520617265206e6f742061207265676973746572656420766f7465722e006044820152606401610484565b600181015460ff16156105c45760405162461bcd60e51b81526020600482015260156024820152742cb7ba9030b63932b0b23c903430b9ab37ba32b21760591b6044820152606401610484565b60045482106106075760405162461bcd60e51b815260206004820152600f60248201526e24b73b30b634b21037b83a34b7b71760891b6044820152606401610484565b6001818101805460ff1916909117905560028101829055805460048054849081106106345761063461157d565b9060005260206000209060030201600101600082825461065491906115a9565b909155505060038054906000610669836115c2565b91905055505050565b6000546001600160a01b0316331461069c5760405162461bcd60e51b8152600401610484906115db565b60055460ff16156106eb5760405162461bcd60e51b81526020600482015260196024820152782a3432903130b63637ba1034b99039ba34b6361037b832b71760391b6044820152606401610484565b62015180600482815481106107025761070261157d565b9060005260206000209060030201600201600082825461072291906115a9565b90915550506040518181527f7a4b41020ead4d71d4f506d62fc1e9e218e62f9de3d9a8bffa67f039fe1351ac9060200160405180910390a150565b6000546001600160a01b031633146107875760405162461bcd60e51b8152600401610484906115db565b60055460ff166107a95760405162461bcd60e51b81526004016104849061154e565b60045481106107ca5760405162461bcd60e51b815260040161048490611621565b805b6004546107db90600190611650565b8110156108615760046107ef8260016115a9565b815481106107ff576107ff61157d565b9060005260206000209060030201600482815481106108205761082061157d565b600091825260209091206003909102018061083b83826116eb565b506001828101549082015560029182015491015580610859816115c2565b9150506107cc565b506004805480610873576108736117cc565b600082815260208120600019909201916003830201906108938282611300565b50600060018201819055600290910155905550565b600880546108b590611663565b80601f01602080910402602001604051908101604052809291908181526020018280546108e190611663565b801561092e5780601f106109035761010080835404028352916020019161092e565b820191906000526020600020905b81548152906001019060200180831161091157829003601f168201915b505050505081565b6000546001600160a01b031633146109605760405162461bcd60e51b8152600401610484906115db565b60055460ff166109825760405162461bcd60e51b81526004016104849061154e565b6040805160608101825282815260006020820181905260065492820192909252600480546001810182559252805190916003027f8a35acfbc15ff81a39ae7d344fd709f28e8600b4aa8c65c6b64bfe7fe36bd19b019081906109e490826117e2565b506020820151816001015560408201518160020155505050565b60055460ff16610a205760405162461bcd60e51b81526004016104849061154e565b336000908152600960205260409020600181015460ff16610a835760405162461bcd60e51b815260206004820152601a60248201527f596f752068617665206e6f7420686173566f746564207965742e0000000000006044820152606401610484565b600281015481546004805483908110610a9e57610a9e61157d565b90600052602060002090600302016001016000828254610abe9190611650565b909155505060018201805460ff1916905560038054906000610adf8361189c565b90915550506040513381527f13b9af890e3316d49f0b15dbf1c992af546c4759bb0f0870b5e18958eff1296a9060200160405180910390a15050565b6000546001600160a01b03163314610b455760405162461bcd60e51b8152600401610484906115db565b6001600160a01b0381166000908152600a602052604090205460ff1615610bae5760405162461bcd60e51b815260206004820181905260248201527f54686520766f74657220697320616c726561647920726567697374657265642e6044820152606401610484565b6001600160a01b03166000908152600b60205260409020805460ff19166001179055565b60048181548110610be257600080fd5b9060005260206000209060030201600091509050806000018054610c0590611663565b80601f0160208091040260200160405190810160405280929190818152602001828054610c3190611663565b8015610c7e5780601f10610c5357610100808354040283529160200191610c7e565b820191906000526020600020905b815481529060010190602001808311610c6157829003601f168201915b5050505050908060010154908060020154905083565b336000908152600b602052604090205460ff1615610cf45760405162461bcd60e51b815260206004820152601860248201527f596f75206861766520616c7265616479206a6f696e65642e00000000000000006044820152606401610484565b6008604051602001610d0691906118b3565b6040516020818303038152906040528051906020012081604051602001610d2d9190611929565b6040516020818303038152906040528051906020012014610d855760405162461bcd60e51b815260206004820152601260248201527124b73b30b634b2103537b4b71031b7b2329760711b6044820152606401610484565b50336000908152600b60205260409020805460ff19166001179055565b6000546001600160a01b03163314610dcc5760405162461bcd60e51b8152600401610484906115db565b60055460ff16610dee5760405162461bcd60e51b81526004016104849061154e565b6004548210610e0f5760405162461bcd60e51b815260040161048490611621565b8060048381548110610e2357610e2361157d565b90600052602060002090600302016000019081610e4091906117e2565b505050565b600180546108b590611663565b6000546001600160a01b03163314610e7c5760405162461bcd60e51b8152600401610484906115db565b600755565b6000546001600160a01b03163314610eab5760405162461bcd60e51b8152600401610484906115db565b6008610eb782826117e2565b5050565b6000546001600160a01b03163314610ee55760405162461bcd60e51b8152600401610484906115db565b6001600160a01b0381166000908152600a602052604090205460ff16610f4d5760405162461bcd60e51b815260206004820152601c60248201527f54686520766f746572206973206e6f7420726567697374657265642e000000006044820152606401610484565b6001600160a01b03166000908152600b60205260409020805460ff19169055565b60055460009060ff1615610fc05760405162461bcd60e51b81526020600482015260196024820152782a3432903130b63637ba1034b99039ba34b6361037b832b71760391b6044820152606401610484565b6000805b600454811015611037578160048281548110610fe257610fe261157d565b9060005260206000209060030201600101541115611025576004818154811061100d5761100d61157d565b90600052602060002090600302016001015491508092505b8061102f816115c2565b915050610fc4565b505090565b6000546001600160a01b031633146110665760405162461bcd60e51b8152600401610484906115db565b60055460ff166110b85760405162461bcd60e51b815260206004820152601d60248201527f5468652062616c6c6f7420697320616c726561647920636c6f7365642e0000006044820152606401610484565b6007546002546003546110cc906064611945565b6110d6919061195c565b101561111a5760405162461bcd60e51b815260206004820152601360248201527228bab7b93ab6903737ba103932b0b1b432b21760691b6044820152606401610484565b6005805460ff191690556040517f2629624ab9cc9a7094e16cd49f3725af14a75d13c920a4d3d6112c39c36cf09290600090a1565b606060008060048054905084106111785760405162461bcd60e51b815260040161048490611621565b60006004858154811061118d5761118d61157d565b9060005260206000209060030201905080600001816001015482600201548280546111b790611663565b80601f01602080910402602001604051908101604052809291908181526020018280546111e390611663565b80156112305780601f1061120557610100808354040283529160200191611230565b820191906000526020600020905b81548152906001019060200180831161121357829003601f168201915b50505050509250935093509350509193909250565b6000546001600160a01b0316331461126f5760405162461bcd60e51b8152600401610484906115db565b60055460ff166112c15760405162461bcd60e51b815260206004820152601d60248201527f5468652062616c6c6f7420697320616c726561647920636c6f7365642e0000006044820152606401610484565b6005805460ff191690556040513381527f754167864fb8f3f47e0e6d5534322a4b8c5fb28fea9dbba7f91c468abaaa67dc9060200160405180910390a1565b50805461130c90611663565b6000825580601f1061131c575050565b601f01602090049060005260206000209081019061133a919061133d565b50565b5b80821115611352576000815560010161133e565b5090565b60006020828403121561136857600080fd5b5035919050565b60005b8381101561138a578181015183820152602001611372565b50506000910152565b600081518084526113ab81602086016020860161136f565b601f01601f19169290920160200192915050565b6020815260006113d26020830184611393565b9392505050565b634e487b7160e01b600052604160045260246000fd5b600082601f83011261140057600080fd5b813567ffffffffffffffff8082111561141b5761141b6113d9565b604051601f8301601f19908116603f01168101908282118183101715611443576114436113d9565b8160405283815286602085880101111561145c57600080fd5b836020870160208301376000602085830101528094505050505092915050565b60006020828403121561148e57600080fd5b813567ffffffffffffffff8111156114a557600080fd5b6114b1848285016113ef565b949350505050565b6000602082840312156114cb57600080fd5b81356001600160a01b03811681146113d257600080fd5b6060815260006114f56060830186611393565b60208301949094525060400152919050565b6000806040838503121561151a57600080fd5b82359150602083013567ffffffffffffffff81111561153857600080fd5b611544858286016113ef565b9150509250929050565b6020808252601590820152742a3432903130b63637ba1034b99031b637b9b2b21760591b604082015260600190565b634e487b7160e01b600052603260045260246000fd5b634e487b7160e01b600052601160045260246000fd5b808201808211156115bc576115bc611593565b92915050565b6000600182016115d4576115d4611593565b5060010190565b60208082526026908201527f4f6e6c79207465616d4f776e65722063616e2063616c6c20746869732066756e60408201526531ba34b7b71760d11b606082015260800190565b60208082526015908201527424b73b30b634b21037b83a34b7b71034b73232bc1760591b604082015260600190565b818103818111156115bc576115bc611593565b600181811c9082168061167757607f821691505b60208210810361169757634e487b7160e01b600052602260045260246000fd5b50919050565b601f821115610e4057600081815260208120601f850160051c810160208610156116c45750805b601f850160051c820191505b818110156116e3578281556001016116d0565b505050505050565b8181036116f6575050565b6117008254611663565b67ffffffffffffffff811115611718576117186113d9565b61172c816117268454611663565b8461169d565b6000601f82116001811461176057600083156117485750848201545b600019600385901b1c1916600184901b1784556117c5565b600085815260209020601f19841690600086815260209020845b8381101561179a578286015482556001958601959091019060200161177a565b50858310156117b85781850154600019600388901b60f8161c191681555b50505060018360011b0184555b5050505050565b634e487b7160e01b600052603160045260246000fd5b815167ffffffffffffffff8111156117fc576117fc6113d9565b61180a816117268454611663565b602080601f83116001811461183f57600084156118275750858301515b600019600386901b1c1916600185901b1785556116e3565b600085815260208120601f198616915b8281101561186e5788860151825594840194600190910190840161184f565b508582101561188c5787850151600019600388901b60f8161c191681555b5050505050600190811b01905550565b6000816118ab576118ab611593565b506000190190565b60008083546118c181611663565b600182811680156118d957600181146118ee5761191d565b60ff198416875282151583028701945061191d565b8760005260208060002060005b858110156119145781548a8201529084019082016118fb565b50505082870194505b50929695505050505050565b6000825161193b81846020870161136f565b9190910192915050565b80820281158282048414176115bc576115bc611593565b60008261197957634e487b7160e01b600052601260045260246000fd5b50049056fea26469706673582212202cb29eeb2118ab4397697cfd89da5108d119b8e99fe6b3877c61e834c3376b4f64736f6c63430008110033",
  "immutableReferences": {},
  "source": "// SPDX-License-Identifier: GPL-3.0\r\npragma solidity >=0.7.0 <0.9.0;\r\n// Incercand string am observat ca se consuma mult gas\r\ncontract Team {\r\n                address public teamOwner;\r\n                string public teamName;\r\n                uint256 public totalParticipants;\r\n                uint256 public voterParticipation;\r\n                Option[] public options;\r\n                bool public isVotingSessionOpen;\r\n                uint public timeLimit;\r\n                uint public minimumVoterParticipation;\r\n                string public joinCode;\r\n                mapping(address => Voter) public voters;\r\n                mapping(address => bool) public voterRegistry;\r\n                mapping(address => bool) public isEligible;\r\n                struct Voter {\r\n                    uint256 weight;\r\n                    bool hasVoted;\r\n                    uint256 voteChoice;\r\n                }\r\n\r\n                struct Option {\r\n                    string name;\r\n                    uint256 voteCount;\r\n                    uint timeLimit;\r\n                }\r\n\r\n                struct OptionResult {\r\n                    string name;\r\n                    uint256 voteCount;\r\n                    bool isWinner;\r\n                }\r\n\r\n\r\n                modifier teamOwnerModifier {\r\n                    require(msg.sender == teamOwner, \"Only teamOwner can call this function.\");\r\n                    _;\r\n                }\r\n\r\n                event votingPeriodEnded(address owner);\r\n                event isTieBeingHandled(uint256 optionId);\r\n                event removedVoterRights(address voter);\r\n                event periodEnded();\r\n\r\n                constructor(string memory _teamName, string[] memory optionNames, uint _timeLimit, uint _minimumVoterParticipation, string memory _joinCode) {\r\n                    teamOwner = msg.sender;\r\n                    teamName = _teamName;\r\n                    voterRegistry[teamOwner] = true;\r\n                    voters[teamOwner].weight = 1;\r\n                    isVotingSessionOpen = true;\r\n                    timeLimit = _timeLimit;\r\n                    minimumVoterParticipation = _minimumVoterParticipation;\r\n                    joinCode = _joinCode;\r\n                    for (uint256 i = 0; i < optionNames.length; i++) {\r\n                        options.push(Option({name: optionNames[i], voteCount: 0, timeLimit: _timeLimit}));\r\n                    }\r\n                }\r\n\r\n                \r\n                \r\n\r\n            function requestToJoinTeam(string memory providedCode) public {\r\n                require(!isEligible[msg.sender], \"You have already joined.\");\r\n                require(keccak256(abi.encodePacked(providedCode)) == keccak256(abi.encodePacked(joinCode)), \"Invalid join code.\");\r\n\r\n                isEligible[msg.sender] = true;\r\n                }\r\n\r\n                function updateJoinCode(string memory newJoinCode) public teamOwnerModifier {\r\n                joinCode = newJoinCode;\r\n            }\r\n\r\n                function updateMinimumParticipation(uint newMinimumParticipation) public teamOwnerModifier {\r\n                minimumVoterParticipation = newMinimumParticipation;\r\n            }\r\n\r\n                function registerVoter(address voter) public teamOwnerModifier {\r\n                    require(!voterRegistry[voter], \"The voter is already registered.\");\r\n                    isEligible[voter] = true;\r\n                }\r\n\r\n                function excludeVoter(address voter) public teamOwnerModifier {\r\n                    require(voterRegistry[voter], \"The voter is not registered.\");\r\n                    isEligible[voter] = false;\r\n                }\r\n\r\n                function addVotingOption(string memory optionName) public teamOwnerModifier {\r\n                    require(isVotingSessionOpen, \"The ballot is closed.\");\r\n                    options.push(Option({name: optionName, voteCount: 0, timeLimit: timeLimit}));\r\n                }\r\n                function removeVotingOption(uint256 optionIndex) public teamOwnerModifier {\r\n                    require(isVotingSessionOpen, \"The ballot is closed.\");\r\n                    require(optionIndex < options.length, \"Invalid option index.\");\r\n                    for (uint256 i = optionIndex; i < options.length - 1; i++) {\r\n                        options[i] = options[i + 1];\r\n                    }\r\n                    options.pop();\r\n                }\r\n\r\n                function updateOptionName(uint256 optionIndex, string memory newName) public teamOwnerModifier {\r\n                require(isVotingSessionOpen, \"The ballot is closed.\");\r\n                require(optionIndex < options.length, \"Invalid option index.\");\r\n                options[optionIndex].name = newName;\r\n            }\r\n            function totalOptions() public view returns (uint256) {\r\n                return options.length;\r\n            }\r\n\r\n            function checkIfEligible(address voter) public view returns (bool) {\r\n                    return isEligible[voter];\r\n                }\r\n                function vote(uint256 option) public {\r\n                    require(isVotingSessionOpen, \"The ballot is closed.\");\r\n                    require(options[option].timeLimit >= block.timestamp, \"This option voting period has ended.\");\r\n                    Voter storage sender = voters[msg.sender];\r\n                    require(voterRegistry[msg.sender], \"You are not a registered voter.\");\r\n                    require(!sender.hasVoted, \"You already hasVoted.\");\r\n                    require(option < options.length, \"Invalid option.\");\r\n\r\n                    sender.hasVoted = true;\r\n                    sender.voteChoice = option;\r\n                    options[option].voteCount += sender.weight;\r\n                    voterParticipation++;\r\n                }\r\n                \r\n\r\n                function winningOption() public view returns (uint256 winningOptionIndex) {\r\n                    require(!isVotingSessionOpen, \"The ballot is still open.\");\r\n                    uint256 counterForVoteWinner = 0;\r\n                    uint256 i = 0;\r\n                    for (i;i < options.length; i++) {\r\n                        if (options[i].voteCount > counterForVoteWinner) {\r\n                            counterForVoteWinner = options[i].voteCount;\r\n                            winningOptionIndex = i;\r\n                        }\r\n                    }\r\n                }\r\n\r\n                function optionStatus(uint256 optionIndex) public view returns (string memory name, uint256 voteCount, uint _timeLimit) {\r\n                require(optionIndex < options.length, \"Invalid option index.\");\r\n                Option storage option = options[optionIndex];\r\n                return (option.name, option.voteCount, option.timeLimit);\r\n            }\r\n\r\n            function votingPeriodStatus() public view returns (bool) {\r\n                return isVotingSessionOpen;\r\n            }\r\n\r\n                function closeVotingSessionEarly() public teamOwnerModifier {\r\n                    require(isVotingSessionOpen, \"The ballot is already closed.\");\r\n                    isVotingSessionOpen = false;\r\n                    emit votingPeriodEnded(msg.sender);\r\n                }\r\n\r\n\r\n                modifier checkVotingPeriodTime {\r\n                    if (block.timestamp >= timeLimit) {\r\n                        isVotingSessionOpen = false;\r\n                        emit votingPeriodEnded(teamOwner);\r\n                    }\r\n                    _;\r\n                }\r\n\r\n\r\n                function tieHandler(uint256 optionId) public teamOwnerModifier {\r\n                    require(!isVotingSessionOpen, \"The ballot is still open.\");\r\n                    options[optionId].timeLimit += 24 hours;\r\n                    emit isTieBeingHandled(optionId);\r\n                }\r\n\r\n            \r\n\r\n                function removeVoterRight() public {\r\n                    require(isVotingSessionOpen, \"The ballot is closed.\");\r\n                    Voter storage sender = voters[msg.sender];\r\n                    require(sender.hasVoted, \"You have not hasVoted yet.\"); \r\n                    uint256 votedOption = sender.voteChoice;\r\n                    options[votedOption].voteCount -= sender.weight;\r\n                    sender.hasVoted = false;\r\n                    voterParticipation--;\r\n                    emit removedVoterRights(msg.sender);\r\n                }\r\n                \r\n                function finishVotingSession() public teamOwnerModifier {\r\n                    require(isVotingSessionOpen, \"The ballot is already closed.\");\r\n                    require(voterParticipation * 100 / totalParticipants >= minimumVoterParticipation, \"Quorum not reached.\");\r\n                    isVotingSessionOpen = false;\r\n                    emit periodEnded();\r\n                }\r\n}",
  "sourcePath": "C:\\Users\\Darius\\Desktop\\BlockchainUWT\\contracts\\Team.sol",
  "compiler": {
    "name": "solc",
    "version": "0.8.17+commit.8df45f5f.Emscripten.clang"
  },
  "schemaVersion": "3.4.13",
  "updatedAt": "2023-05-26T08:29:02.015Z",
  "networkType": "ethereum",
  "devdoc": {
    "kind": "dev",
    "methods": {},
    "version": 1
  },
  "userdoc": {
    "kind": "user",
    "methods": {},
    "version": 1
  }
}