{
  "contractName": "Team",
  "abi": [
    {
      "inputs": [
        {
          "internalType": "string",
          "name": "_teamName",
          "type": "string"
        },
        {
          "internalType": "string[]",
          "name": "optionNames",
          "type": "string[]"
        },
        {
          "internalType": "uint256",
          "name": "_timeLimit",
          "type": "uint256"
        },
        {
          "internalType": "uint256",
          "name": "_minimumVoterParticipation",
          "type": "uint256"
        },
        {
          "internalType": "string",
          "name": "_joinCode",
          "type": "string"
        }
      ],
      "stateMutability": "nonpayable",
      "type": "constructor"
    },
    {
      "anonymous": false,
      "inputs": [
        {
          "indexed": false,
          "internalType": "uint256",
          "name": "optionId",
          "type": "uint256"
        }
      ],
      "name": "isTieBeingHandled",
      "type": "event"
    },
    {
      "anonymous": false,
      "inputs": [],
      "name": "periodEnded",
      "type": "event"
    },
    {
      "anonymous": false,
      "inputs": [
        {
          "indexed": false,
          "internalType": "address",
          "name": "voter",
          "type": "address"
        }
      ],
      "name": "removedVoterRights",
      "type": "event"
    },
    {
      "anonymous": false,
      "inputs": [
        {
          "indexed": false,
          "internalType": "address",
          "name": "owner",
          "type": "address"
        }
      ],
      "name": "votingPeriodEnded",
      "type": "event"
    },
    {
      "inputs": [
        {
          "internalType": "address",
          "name": "",
          "type": "address"
        }
      ],
      "name": "isEligible",
      "outputs": [
        {
          "internalType": "bool",
          "name": "",
          "type": "bool"
        }
      ],
      "stateMutability": "view",
      "type": "function",
      "constant": true
    },
    {
      "inputs": [],
      "name": "isVotingSessionOpen",
      "outputs": [
        {
          "internalType": "bool",
          "name": "",
          "type": "bool"
        }
      ],
      "stateMutability": "view",
      "type": "function",
      "constant": true
    },
    {
      "inputs": [],
      "name": "joinCode",
      "outputs": [
        {
          "internalType": "string",
          "name": "",
          "type": "string"
        }
      ],
      "stateMutability": "view",
      "type": "function",
      "constant": true
    },
    {
      "inputs": [],
      "name": "minimumVoterParticipation",
      "outputs": [
        {
          "internalType": "uint256",
          "name": "",
          "type": "uint256"
        }
      ],
      "stateMutability": "view",
      "type": "function",
      "constant": true
    },
    {
      "inputs": [
        {
          "internalType": "uint256",
          "name": "",
          "type": "uint256"
        }
      ],
      "name": "options",
      "outputs": [
        {
          "internalType": "string",
          "name": "name",
          "type": "string"
        },
        {
          "internalType": "uint256",
          "name": "voteCount",
          "type": "uint256"
        },
        {
          "internalType": "uint256",
          "name": "timeLimit",
          "type": "uint256"
        }
      ],
      "stateMutability": "view",
      "type": "function",
      "constant": true
    },
    {
      "inputs": [],
      "name": "teamName",
      "outputs": [
        {
          "internalType": "string",
          "name": "",
          "type": "string"
        }
      ],
      "stateMutability": "view",
      "type": "function",
      "constant": true
    },
    {
      "inputs": [],
      "name": "teamOwner",
      "outputs": [
        {
          "internalType": "address",
          "name": "",
          "type": "address"
        }
      ],
      "stateMutability": "view",
      "type": "function",
      "constant": true
    },
    {
      "inputs": [],
      "name": "timeLimit",
      "outputs": [
        {
          "internalType": "uint256",
          "name": "",
          "type": "uint256"
        }
      ],
      "stateMutability": "view",
      "type": "function",
      "constant": true
    },
    {
      "inputs": [],
      "name": "totalParticipants",
      "outputs": [
        {
          "internalType": "uint256",
          "name": "",
          "type": "uint256"
        }
      ],
      "stateMutability": "view",
      "type": "function",
      "constant": true
    },
    {
      "inputs": [],
      "name": "voterParticipation",
      "outputs": [
        {
          "internalType": "uint256",
          "name": "",
          "type": "uint256"
        }
      ],
      "stateMutability": "view",
      "type": "function",
      "constant": true
    },
    {
      "inputs": [
        {
          "internalType": "address",
          "name": "",
          "type": "address"
        }
      ],
      "name": "voterRegistry",
      "outputs": [
        {
          "internalType": "bool",
          "name": "",
          "type": "bool"
        }
      ],
      "stateMutability": "view",
      "type": "function",
      "constant": true
    },
    {
      "inputs": [
        {
          "internalType": "address",
          "name": "",
          "type": "address"
        }
      ],
      "name": "voters",
      "outputs": [
        {
          "internalType": "uint256",
          "name": "weight",
          "type": "uint256"
        },
        {
          "internalType": "bool",
          "name": "hasVoted",
          "type": "bool"
        },
        {
          "internalType": "uint256",
          "name": "voteChoice",
          "type": "uint256"
        }
      ],
      "stateMutability": "view",
      "type": "function",
      "constant": true
    },
    {
      "inputs": [
        {
          "internalType": "string",
          "name": "providedCode",
          "type": "string"
        }
      ],
      "name": "requestToJoinTeam",
      "outputs": [],
      "stateMutability": "nonpayable",
      "type": "function"
    },
    {
      "inputs": [
        {
          "internalType": "string",
          "name": "newJoinCode",
          "type": "string"
        }
      ],
      "name": "updateJoinCode",
      "outputs": [],
      "stateMutability": "nonpayable",
      "type": "function"
    },
    {
      "inputs": [
        {
          "internalType": "uint256",
          "name": "newMinimumParticipation",
          "type": "uint256"
        }
      ],
      "name": "updateMinimumParticipation",
      "outputs": [],
      "stateMutability": "nonpayable",
      "type": "function"
    },
    {
      "inputs": [
        {
          "internalType": "address",
          "name": "voter",
          "type": "address"
        }
      ],
      "name": "registerVoter",
      "outputs": [],
      "stateMutability": "nonpayable",
      "type": "function"
    },
    {
      "inputs": [
        {
          "internalType": "address",
          "name": "voter",
          "type": "address"
        }
      ],
      "name": "excludeVoter",
      "outputs": [],
      "stateMutability": "nonpayable",
      "type": "function"
    },
    {
      "inputs": [
        {
          "internalType": "string",
          "name": "optionName",
          "type": "string"
        }
      ],
      "name": "addVotingOption",
      "outputs": [],
      "stateMutability": "nonpayable",
      "type": "function"
    },
    {
      "inputs": [
        {
          "internalType": "uint256",
          "name": "optionIndex",
          "type": "uint256"
        }
      ],
      "name": "removeVotingOption",
      "outputs": [],
      "stateMutability": "nonpayable",
      "type": "function"
    },
    {
      "inputs": [
        {
          "internalType": "uint256",
          "name": "optionIndex",
          "type": "uint256"
        },
        {
          "internalType": "string",
          "name": "newName",
          "type": "string"
        }
      ],
      "name": "updateOptionName",
      "outputs": [],
      "stateMutability": "nonpayable",
      "type": "function"
    },
    {
      "inputs": [],
      "name": "totalOptions",
      "outputs": [
        {
          "internalType": "uint256",
          "name": "",
          "type": "uint256"
        }
      ],
      "stateMutability": "view",
      "type": "function",
      "constant": true
    },
    {
      "inputs": [
        {
          "internalType": "address",
          "name": "voter",
          "type": "address"
        }
      ],
      "name": "checkIfEligible",
      "outputs": [
        {
          "internalType": "bool",
          "name": "",
          "type": "bool"
        }
      ],
      "stateMutability": "view",
      "type": "function",
      "constant": true
    },
    {
      "inputs": [
        {
          "internalType": "uint256",
          "name": "option",
          "type": "uint256"
        }
      ],
      "name": "vote",
      "outputs": [],
      "stateMutability": "nonpayable",
      "type": "function"
    },
    {
      "inputs": [],
      "name": "winningOption",
      "outputs": [
        {
          "internalType": "uint256",
          "name": "winningOptionIndex",
          "type": "uint256"
        }
      ],
      "stateMutability": "view",
      "type": "function",
      "constant": true
    },
    {
      "inputs": [
        {
          "internalType": "uint256",
          "name": "optionIndex",
          "type": "uint256"
        }
      ],
      "name": "optionStatus",
      "outputs": [
        {
          "internalType": "string",
          "name": "name",
          "type": "string"
        },
        {
          "internalType": "uint256",
          "name": "voteCount",
          "type": "uint256"
        },
        {
          "internalType": "uint256",
          "name": "_timeLimit",
          "type": "uint256"
        }
      ],
      "stateMutability": "view",
      "type": "function",
      "constant": true
    },
    {
      "inputs": [],
      "name": "votingPeriodStatus",
      "outputs": [
        {
          "internalType": "bool",
          "name": "",
          "type": "bool"
        }
      ],
      "stateMutability": "view",
      "type": "function",
      "constant": true
    },
    {
      "inputs": [],
      "name": "closeVotingSessionEarly",
      "outputs": [],
      "stateMutability": "nonpayable",
      "type": "function"
    },
    {
      "inputs": [
        {
          "internalType": "uint256",
          "name": "optionId",
          "type": "uint256"
        }
      ],
      "name": "tieHandler",
      "outputs": [],
      "stateMutability": "nonpayable",
      "type": "function"
    },
    {
      "inputs": [],
      "name": "removeVoterRight",
      "outputs": [],
      "stateMutability": "nonpayable",
      "type": "function"
    },
    {
      "inputs": [],
      "name": "finishVotingSession",
      "outputs": [],
      "stateMutability": "nonpayable",
      "type": "function"
    }
  ],
  "bytecode": "0x60806040523480156200001157600080fd5b5060405162001f1538038062001f15833981016040819052620000349162000237565b600080546001600160a01b031916331790556001620000548682620003f8565b50600080546001600160a01b039081168252600a602090815260408084208054600160ff199182168117909255855490941685526009909252909220829055600580549091169091179055600683905560078290556008620000b78282620003f8565b5060005b8451811015620001555760046040518060600160405280878481518110620000e757620000e7620004c4565b602090810291909101810151825260008282018190526040909201889052835460018101855593825290208151919260030201908190620001299082620003f8565b5060208201516001820155604090910151600290910155806200014c81620004da565b915050620000bb565b50505050505062000502565b634e487b7160e01b600052604160045260246000fd5b604051601f8201601f191681016001600160401b0381118282101715620001a257620001a262000161565b604052919050565b600082601f830112620001bc57600080fd5b81516001600160401b03811115620001d857620001d862000161565b6020620001ee601f8301601f1916820162000177565b82815285828487010111156200020357600080fd5b60005b838110156200022357858101830151828201840152820162000206565b506000928101909101919091529392505050565b600080600080600060a086880312156200025057600080fd5b85516001600160401b03808211156200026857600080fd5b6200027689838a01620001aa565b96506020915081880151818111156200028e57600080fd5b8801601f81018a13620002a057600080fd5b805182811115620002b557620002b562000161565b8060051b620002c685820162000177565b918252828101850191858101908d841115620002e157600080fd5b86850192505b838310156200032257825186811115620003015760008081fd5b620003118f8983890101620001aa565b8352509186019190860190620002e7565b809a505050505050604088015194506060880151935060808801519150808211156200034d57600080fd5b506200035c88828901620001aa565b9150509295509295909350565b600181811c908216806200037e57607f821691505b6020821081036200039f57634e487b7160e01b600052602260045260246000fd5b50919050565b601f821115620003f357600081815260208120601f850160051c81016020861015620003ce5750805b601f850160051c820191505b81811015620003ef57828155600101620003da565b5050505b505050565b81516001600160401b0381111562000414576200041462000161565b6200042c8162000425845462000369565b84620003a5565b602080601f8311600181146200046457600084156200044b5750858301515b600019600386901b1c1916600185901b178555620003ef565b600085815260208120601f198616915b82811015620004955788860151825594840194600190910190840162000474565b5085821015620004b45787850151600019600388901b60f8161c191681555b5050505050600190811b01905550565b634e487b7160e01b600052603260045260246000fd5b600060018201620004fb57634e487b7160e01b600052601160045260246000fd5b5060010190565b611a0380620005126000396000f3fe608060405234801561001057600080fd5b50600436106101da5760003560e01c806382474b1b11610104578063a6d996d0116100a2578063c8c05cda11610071578063c8c05cda1461042f578063d742d19b1461043a578063ef99efeb1461044d578063f31835e71461045a57600080fd5b8063a6d996d0146103ea578063b354388914610416578063bc5bd14a1461041e578063c08d1fe51461042657600080fd5b80639cfd5142116100de5780639cfd5142146103795780639fde4ef81461038c578063a26dbf2614610394578063a3ec138d1461039d57600080fd5b806382474b1b1461034b578063873ed0e714610353578063934feb131461036657600080fd5b80631cfe7e5a1161017c5780634763d4e71161014b5780634763d4e7146102cf578063657de0f01461030257806366e305fd1461031557806368b97d4c1461033857600080fd5b80631cfe7e5a1461027f5780632eb03f971461029257806338db6dd31461029a578063409e2205146102ad57600080fd5b8063100f25a4116101b8578063100f25a4146102235780631188b8071461024e578063166ffeba146102575780631717616e1461026a57600080fd5b80630121b93f146101df57806301cbec3b146101f45780630430a2b714610210575b600080fd5b6101f26101ed366004611342565b610462565b005b6101fd60075481565b6040519081526020015b60405180910390f35b6101f261021e366004611342565b61066f565b600054610236906001600160a01b031681565b6040516001600160a01b039091168152602001610207565b6101fd60035481565b6101f2610265366004611342565b61075e565b6102726108a9565b60405161020791906113ab565b6101f261028d366004611468565b610937565b6101f26109ff565b6101f26102a83660046114a5565b610b1c565b6102c06102bb366004611342565b610be8565b604051610207939291906114ce565b6102f26102dd3660046114a5565b600a6020526000908152604090205460ff1681565b6040519015158152602001610207565b6101f2610310366004611468565b610caa565b6102f26103233660046114a5565b600b6020526000908152604090205460ff1681565b6101f26103463660046114f3565b610dc3565b610272610e66565b6101f2610361366004611342565b610e73565b6101f2610374366004611468565b610ea2565b6101f26103873660046114a5565b610edc565b6101fd610fa0565b6101fd60025481565b6103cf6103ab3660046114a5565b600960205260009081526040902080546001820154600290920154909160ff169083565b60408051938452911515602084015290820152606001610207565b6102f26103f83660046114a5565b6001600160a01b03166000908152600b602052604090205460ff1690565b6004546101fd565b6101f2611072565b6101fd60065481565b60055460ff166102f2565b6102c0610448366004611342565b61116b565b6005546102f29060ff1681565b6101f2611261565b60055460ff1661048d5760405162461bcd60e51b81526004016104849061153a565b60405180910390fd5b42600482815481106104a1576104a1611571565b906000526020600020906003020160020154101561050d5760405162461bcd60e51b8152602060048201526024808201527f54686973206f7074696f6e20766f74696e6720706572696f642068617320656e6044820152633232b21760e11b6064820152608401610484565b336000908152600960209081526040808320600a9092529091205460ff166105775760405162461bcd60e51b815260206004820152601f60248201527f596f7520617265206e6f742061207265676973746572656420766f7465722e006044820152606401610484565b600181015460ff16156105c15760405162461bcd60e51b81526020600482015260126024820152712cb7ba9030b63932b0b23c903b37ba32b21760711b6044820152606401610484565b60045482106106045760405162461bcd60e51b815260206004820152600f60248201526e24b73b30b634b21037b83a34b7b71760891b6044820152606401610484565b6001818101805460ff19169091179055600281018290558054600480548490811061063157610631611571565b90600052602060002090600302016001016000828254610651919061159d565b909155505060038054906000610666836115b6565b91905055505050565b6000546001600160a01b031633146106995760405162461bcd60e51b8152600401610484906115cf565b60055460ff16156106ec5760405162461bcd60e51b815260206004820181905260248201527f54686520766f74696e6720706572696f64206973207374696c6c206f70656e2e6044820152606401610484565b620151806004828154811061070357610703611571565b90600052602060002090600302016002016000828254610723919061159d565b90915550506040518181527f7a4b41020ead4d71d4f506d62fc1e9e218e62f9de3d9a8bffa67f039fe1351ac9060200160405180910390a150565b6000546001600160a01b031633146107885760405162461bcd60e51b8152600401610484906115cf565b60055460ff166107aa5760405162461bcd60e51b81526004016104849061153a565b60045481106107cb5760405162461bcd60e51b81526004016104849061162c565b805b6004546107dc9060019061165b565b8110156108625760046107f082600161159d565b8154811061080057610800611571565b90600052602060002090600302016004828154811061082157610821611571565b600091825260209091206003909102018061083c83826116f6565b50600182810154908201556002918201549101558061085a816115b6565b9150506107cd565b506004805480610874576108746117d7565b6000828152602081206000199092019160038302019061089482826112ec565b50600060018201819055600290910155905550565b600880546108b69061166e565b80601f01602080910402602001604051908101604052809291908181526020018280546108e29061166e565b801561092f5780601f106109045761010080835404028352916020019161092f565b820191906000526020600020905b81548152906001019060200180831161091257829003601f168201915b505050505081565b6000546001600160a01b031633146109615760405162461bcd60e51b8152600401610484906115cf565b60055460ff166109835760405162461bcd60e51b81526004016104849061153a565b6040805160608101825282815260006020820181905260065492820192909252600480546001810182559252805190916003027f8a35acfbc15ff81a39ae7d344fd709f28e8600b4aa8c65c6b64bfe7fe36bd19b019081906109e590826117ed565b506020820151816001015560408201518160020155505050565b60055460ff16610a215760405162461bcd60e51b81526004016104849061153a565b336000908152600960205260409020600181015460ff16610a845760405162461bcd60e51b815260206004820152601760248201527f596f752068617665206e6f7420766f746564207965742e0000000000000000006044820152606401610484565b600281015481546004805483908110610a9f57610a9f611571565b90600052602060002090600302016001016000828254610abf919061165b565b909155505060018201805460ff1916905560038054906000610ae0836118a7565b90915550506040513381527f13b9af890e3316d49f0b15dbf1c992af546c4759bb0f0870b5e18958eff1296a9060200160405180910390a15050565b6000546001600160a01b03163314610b465760405162461bcd60e51b8152600401610484906115cf565b6001600160a01b0381166000908152600a602052604090205460ff1615610bc45760405162461bcd60e51b815260206004820152602c60248201527f54686520766f74657220697320616c726561647920726567697374657265642060448201526b34b7103a3432903a32b0b69760a11b6064820152608401610484565b6001600160a01b03166000908152600b60205260409020805460ff19166001179055565b60048181548110610bf857600080fd5b9060005260206000209060030201600091509050806000018054610c1b9061166e565b80601f0160208091040260200160405190810160405280929190818152602001828054610c479061166e565b8015610c945780601f10610c6957610100808354040283529160200191610c94565b820191906000526020600020905b815481529060010190602001808311610c7757829003601f168201915b5050505050908060010154908060020154905083565b336000908152600b602052604090205460ff1615610d155760405162461bcd60e51b815260206004820152602260248201527f596f75206861766520616c7265616479206a6f696e6564207468697320746561604482015261369760f11b6064820152608401610484565b6008604051602001610d2791906118be565b6040516020818303038152906040528051906020012081604051602001610d4e9190611934565b6040516020818303038152906040528051906020012014610da65760405162461bcd60e51b815260206004820152601260248201527124b73b30b634b2103537b4b71031b7b2329760711b6044820152606401610484565b50336000908152600b60205260409020805460ff19166001179055565b6000546001600160a01b03163314610ded5760405162461bcd60e51b8152600401610484906115cf565b60055460ff16610e0f5760405162461bcd60e51b81526004016104849061153a565b6004548210610e305760405162461bcd60e51b81526004016104849061162c565b8060048381548110610e4457610e44611571565b90600052602060002090600302016000019081610e6191906117ed565b505050565b600180546108b69061166e565b6000546001600160a01b03163314610e9d5760405162461bcd60e51b8152600401610484906115cf565b600755565b6000546001600160a01b03163314610ecc5760405162461bcd60e51b8152600401610484906115cf565b6008610ed882826117ed565b5050565b6000546001600160a01b03163314610f065760405162461bcd60e51b8152600401610484906115cf565b6001600160a01b0381166000908152600a602052604090205460ff16610f7f5760405162461bcd60e51b815260206004820152602860248201527f54686520766f746572206973206e6f74207265676973746572656420696e20746044820152673432903a32b0b69760c11b6064820152608401610484565b6001600160a01b03166000908152600b60205260409020805460ff19169055565b60055460009060ff1615610ff65760405162461bcd60e51b815260206004820181905260248201527f54686520766f74696e6720706572696f64206973207374696c6c206f70656e2e6044820152606401610484565b6000805b60045481101561106d57816004828154811061101857611018611571565b906000526020600020906003020160010154111561105b576004818154811061104357611043611571565b90600052602060002090600302016001015491508092505b80611065816115b6565b915050610ffa565b505090565b6000546001600160a01b0316331461109c5760405162461bcd60e51b8152600401610484906115cf565b60055460ff166110be5760405162461bcd60e51b815260040161048490611950565b6007546002546003546110d2906064611994565b6110dc91906119ab565b10156111365760405162461bcd60e51b815260206004820152602360248201527f4d696e696d756d2070617274696369706174696f6e20206e6f7420726561636860448201526232b21760e91b6064820152608401610484565b6005805460ff191690556040517f2629624ab9cc9a7094e16cd49f3725af14a75d13c920a4d3d6112c39c36cf09290600090a1565b606060008060048054905084106111945760405162461bcd60e51b81526004016104849061162c565b6000600485815481106111a9576111a9611571565b9060005260206000209060030201905080600001816001015482600201548280546111d39061166e565b80601f01602080910402602001604051908101604052809291908181526020018280546111ff9061166e565b801561124c5780601f106112215761010080835404028352916020019161124c565b820191906000526020600020905b81548152906001019060200180831161122f57829003601f168201915b50505050509250935093509350509193909250565b6000546001600160a01b0316331461128b5760405162461bcd60e51b8152600401610484906115cf565b60055460ff166112ad5760405162461bcd60e51b815260040161048490611950565b6005805460ff191690556040513381527f754167864fb8f3f47e0e6d5534322a4b8c5fb28fea9dbba7f91c468abaaa67dc9060200160405180910390a1565b5080546112f89061166e565b6000825580601f10611308575050565b601f0160209004906000526020600020908101906113269190611329565b50565b5b8082111561133e576000815560010161132a565b5090565b60006020828403121561135457600080fd5b5035919050565b60005b8381101561137657818101518382015260200161135e565b50506000910152565b6000815180845261139781602086016020860161135b565b601f01601f19169290920160200192915050565b6020815260006113be602083018461137f565b9392505050565b634e487b7160e01b600052604160045260246000fd5b600082601f8301126113ec57600080fd5b813567ffffffffffffffff80821115611407576114076113c5565b604051601f8301601f19908116603f0116810190828211818310171561142f5761142f6113c5565b8160405283815286602085880101111561144857600080fd5b836020870160208301376000602085830101528094505050505092915050565b60006020828403121561147a57600080fd5b813567ffffffffffffffff81111561149157600080fd5b61149d848285016113db565b949350505050565b6000602082840312156114b757600080fd5b81356001600160a01b03811681146113be57600080fd5b6060815260006114e1606083018661137f565b60208301949094525060400152919050565b6000806040838503121561150657600080fd5b82359150602083013567ffffffffffffffff81111561152457600080fd5b611530858286016113db565b9150509250929050565b6020808252601d908201527f54686520766f74696e672073657373696f6e20697320636c6f7365642e000000604082015260600190565b634e487b7160e01b600052603260045260246000fd5b634e487b7160e01b600052601160045260246000fd5b808201808211156115b0576115b0611587565b92915050565b6000600182016115c8576115c8611587565b5060010190565b6020808252603a908201527f596f752063616e206f6e6c792063616c6c20746869732066756e6374696f6e2060408201527f696620796f752061726520746865207465616d206f776e65722e000000000000606082015260800190565b60208082526015908201527424b73b30b634b21037b83a34b7b71034b73232bc1760591b604082015260600190565b818103818111156115b0576115b0611587565b600181811c9082168061168257607f821691505b6020821081036116a257634e487b7160e01b600052602260045260246000fd5b50919050565b601f821115610e6157600081815260208120601f850160051c810160208610156116cf5750805b601f850160051c820191505b818110156116ee578281556001016116db565b505050505050565b818103611701575050565b61170b825461166e565b67ffffffffffffffff811115611723576117236113c5565b61173781611731845461166e565b846116a8565b6000601f82116001811461176b57600083156117535750848201545b600019600385901b1c1916600184901b1784556117d0565b600085815260209020601f19841690600086815260209020845b838110156117a55782860154825560019586019590910190602001611785565b50858310156117c35781850154600019600388901b60f8161c191681555b50505060018360011b0184555b5050505050565b634e487b7160e01b600052603160045260246000fd5b815167ffffffffffffffff811115611807576118076113c5565b61181581611731845461166e565b602080601f83116001811461184a57600084156118325750858301515b600019600386901b1c1916600185901b1785556116ee565b600085815260208120601f198616915b828110156118795788860151825594840194600190910190840161185a565b50858210156118975787850151600019600388901b60f8161c191681555b5050505050600190811b01905550565b6000816118b6576118b6611587565b506000190190565b60008083546118cc8161166e565b600182811680156118e457600181146118f957611928565b60ff1984168752821515830287019450611928565b8760005260208060002060005b8581101561191f5781548a820152908401908201611906565b50505082870194505b50929695505050505050565b6000825161194681846020870161135b565b9190910192915050565b60208082526024908201527f54686520766f74696e6720706572696f6420697320616c726561647920636c6f60408201526339b2b21760e11b606082015260800190565b80820281158282048414176115b0576115b0611587565b6000826119c857634e487b7160e01b600052601260045260246000fd5b50049056fea264697066735822122016d549d016c5f7590f136deefc904ec4ac40273d2e4cc62ab84246796531f2d564736f6c63430008110033",
  "immutableReferences": {},
  "source": "// SPDX-License-Identifier: GPL-3.0\r\npragma solidity >=0.7.0 <0.9.0;\r\ncontract Team {\r\n                address public teamOwner;\r\n                string public teamName;\r\n                uint256 public totalParticipants;\r\n                uint256 public voterParticipation;\r\n                Option[] public options;\r\n                bool public isVotingSessionOpen;\r\n                uint public timeLimit;\r\n                uint public minimumVoterParticipation;\r\n                string public joinCode;\r\n                mapping(address => Voter) public voters;\r\n                mapping(address => bool) public voterRegistry;\r\n                mapping(address => bool) public isEligible;\r\n                struct Voter {\r\n                    uint256 weight;\r\n                    bool hasVoted;\r\n                    uint256 voteChoice;\r\n                }\r\n\r\n                struct Option {\r\n                    string name;\r\n                    uint256 voteCount;\r\n                    uint timeLimit;\r\n                }\r\n\r\n                struct OptionResult {\r\n                    string name;\r\n                    uint256 voteCount;\r\n                    bool isWinner;\r\n                }\r\n\r\n\r\n                modifier teamOwnerModifier {\r\n                    require(msg.sender == teamOwner, \"You can only call this function if you are the team owner.\");\r\n                    _;\r\n                }\r\n\r\n                event votingPeriodEnded(address owner);\r\n                event isTieBeingHandled(uint256 optionId);\r\n                event removedVoterRights(address voter);\r\n                event periodEnded();\r\n\r\n                constructor(string memory _teamName, string[] memory optionNames, uint _timeLimit, uint _minimumVoterParticipation, string memory _joinCode) {\r\n                    teamOwner = msg.sender;\r\n                    teamName = _teamName;\r\n                    voterRegistry[teamOwner] = true;\r\n                    voters[teamOwner].weight = 1;\r\n                    isVotingSessionOpen = true;\r\n                    timeLimit = _timeLimit;\r\n                    minimumVoterParticipation = _minimumVoterParticipation;\r\n                    joinCode = _joinCode;\r\n                    for (uint256 i = 0; i < optionNames.length; i++) {\r\n                        options.push(Option({name: optionNames[i], voteCount: 0, timeLimit: _timeLimit}));\r\n                    }\r\n                }\r\n\r\n                \r\n                \r\n\r\n            function requestToJoinTeam(string memory providedCode) public {\r\n                require(!isEligible[msg.sender], \"You have already joined this team.\");\r\n                require(keccak256(abi.encodePacked(providedCode)) == keccak256(abi.encodePacked(joinCode)), \"Invalid join code.\");\r\n\r\n                isEligible[msg.sender] = true;\r\n                }\r\n\r\n                function updateJoinCode(string memory newJoinCode) public teamOwnerModifier {\r\n                joinCode = newJoinCode;\r\n            }\r\n\r\n                function updateMinimumParticipation(uint newMinimumParticipation) public teamOwnerModifier {\r\n                minimumVoterParticipation = newMinimumParticipation;\r\n            }\r\n\r\n                function registerVoter(address voter) public teamOwnerModifier {\r\n                    require(!voterRegistry[voter], \"The voter is already registered in the team.\");\r\n                    isEligible[voter] = true;\r\n                }\r\n\r\n                function excludeVoter(address voter) public teamOwnerModifier {\r\n                    require(voterRegistry[voter], \"The voter is not registered in the team.\");\r\n                    isEligible[voter] = false;\r\n                }\r\n\r\n                function addVotingOption(string memory optionName) public teamOwnerModifier {\r\n                    require(isVotingSessionOpen, \"The voting session is closed.\");\r\n                    options.push(Option({name: optionName, voteCount: 0, timeLimit: timeLimit}));\r\n                }\r\n                function removeVotingOption(uint256 optionIndex) public teamOwnerModifier {\r\n                    require(isVotingSessionOpen, \"The voting session is closed.\");\r\n                    require(optionIndex < options.length, \"Invalid option index.\");\r\n                    for (uint256 i = optionIndex; i < options.length - 1; i++) {\r\n                        options[i] = options[i + 1];\r\n                    }\r\n                    options.pop();\r\n                }\r\n\r\n                function updateOptionName(uint256 optionIndex, string memory newName) public teamOwnerModifier {\r\n                require(isVotingSessionOpen, \"The voting session is closed.\");\r\n                require(optionIndex < options.length, \"Invalid option index.\");\r\n                options[optionIndex].name = newName;\r\n            }\r\n            function totalOptions() public view returns (uint256) {\r\n                return options.length;\r\n            }\r\n\r\n            function checkIfEligible(address voter) public view returns (bool) {\r\n                    return isEligible[voter];\r\n                }\r\n                function vote(uint256 option) public {\r\n                    require(isVotingSessionOpen, \"The voting session is closed.\");\r\n                    require(options[option].timeLimit >= block.timestamp, \"This option voting period has ended.\");\r\n                    Voter storage sender = voters[msg.sender];\r\n                    require(voterRegistry[msg.sender], \"You are not a registered voter.\");\r\n                    require(!sender.hasVoted, \"You already voted.\");\r\n                    require(option < options.length, \"Invalid option.\");\r\n\r\n                    sender.hasVoted = true;\r\n                    sender.voteChoice = option;\r\n                    options[option].voteCount += sender.weight;\r\n                    voterParticipation++;\r\n                }\r\n                \r\n\r\n                function winningOption() public view returns (uint256 winningOptionIndex) {\r\n                    require(!isVotingSessionOpen, \"The voting period is still open.\");\r\n                    uint256 counterForVoteWinner = 0;\r\n                    uint256 i = 0;\r\n                    for (i;i < options.length; i++) {\r\n                        if (options[i].voteCount > counterForVoteWinner) {\r\n                            counterForVoteWinner = options[i].voteCount;\r\n                            winningOptionIndex = i;\r\n                        }\r\n                    }\r\n                }\r\n\r\n                function optionStatus(uint256 optionIndex) public view returns (string memory name, uint256 voteCount, uint _timeLimit) {\r\n                require(optionIndex < options.length, \"Invalid option index.\");\r\n                Option storage option = options[optionIndex];\r\n                return (option.name, option.voteCount, option.timeLimit);\r\n            }\r\n\r\n            function votingPeriodStatus() public view returns (bool) {\r\n                return isVotingSessionOpen;\r\n            }\r\n\r\n                function closeVotingSessionEarly() public teamOwnerModifier {\r\n                    require(isVotingSessionOpen, \"The voting period is already closed.\");\r\n                    isVotingSessionOpen = false;\r\n                    emit votingPeriodEnded(msg.sender);\r\n                }\r\n\r\n\r\n                modifier checkVotingPeriodTime {\r\n                    if (block.timestamp >= timeLimit) {\r\n                        isVotingSessionOpen = false;\r\n                        emit votingPeriodEnded(teamOwner);\r\n                    }\r\n                    _;\r\n                }\r\n\r\n\r\n                function tieHandler(uint256 optionId) public teamOwnerModifier {\r\n                    require(!isVotingSessionOpen, \"The voting period is still open.\");\r\n                    options[optionId].timeLimit += 24 hours;\r\n                    emit isTieBeingHandled(optionId);\r\n                }\r\n\r\n            \r\n\r\n                function removeVoterRight() public {\r\n                    require(isVotingSessionOpen, \"The voting session is closed.\");\r\n                    Voter storage sender = voters[msg.sender];\r\n                    require(sender.hasVoted, \"You have not voted yet.\"); \r\n                    uint256 votedOption = sender.voteChoice;\r\n                    options[votedOption].voteCount -= sender.weight;\r\n                    sender.hasVoted = false;\r\n                    voterParticipation--;\r\n                    emit removedVoterRights(msg.sender);\r\n                }\r\n                \r\n                function finishVotingSession() public teamOwnerModifier {\r\n                    require(isVotingSessionOpen, \"The voting period is already closed.\");\r\n                    require(voterParticipation * 100 / totalParticipants >= minimumVoterParticipation, \"Minimum participation  not reached.\");\r\n                    isVotingSessionOpen = false;\r\n                    emit periodEnded();\r\n                }\r\n}",
  "sourcePath": "C:\\Users\\Darius\\Desktop\\BlockchainUWT\\contracts\\Team.sol",
  "compiler": {
    "name": "solc",
    "version": "0.8.17+commit.8df45f5f.Emscripten.clang"
  },
  "schemaVersion": "3.4.13",
  "updatedAt": "2023-06-08T13:57:02.670Z",
  "networkType": "ethereum",
  "devdoc": {
    "kind": "dev",
    "methods": {},
    "version": 1
  },
  "userdoc": {
    "kind": "user",
    "methods": {},
    "version": 1
  }
}